:020000020000FC
:10000000509A519A529A539A549A559A569A579A84
:10001000209A219A259A0F9301E00BB92898299AE2
:100020002F938F939F9321E08EE39CE90197F1F743
:100030002A95D1F700009F918F912F91299800E088
:100040000BB90F910F9308E30BB92898299A2F93B6
:100050008F939F9321E08EE39CE90197F1F72A9516
:10006000D1F700009F918F912F91299800E00BB953
:100070000F910F930CE00BB92898299A2F938F9327
:100080009F9321E08EE39CE90197F1F72A95D1F740
:1000900000009F918F912F91299800E00BB90F914B
:1000A0002D9A239A2B98229A2A9824982C9A1C9B52
:1000B00012C02B982A9A13C02F938F939F932AE0F4
:1000C0008EE39CE90197F1F72A95D1F700009F9103
:1000D0008F912F91ECCF2B9A2A9858C2E8CF0F938B
:1000E0000CE40BB9289A299A2F938F939F9321E0C0
:1000F0008EE39CE90197F1F72A95D1F700009F91D3
:100100008F912F91299800E00BB90F910F9309E47B
:100110000BB9289A299A2F938F939F9321E08EE30E
:100120009CE90197F1F72A95D1F700009F918F91F3
:100130002F91299800E00BB90F910F9307E40BB9A9
:10014000289A299A2F938F939F9321E08EE39CE91D
:100150000197F1F72A95D1F700009F918F912F9188
:10016000299800E00BB90F910F9308E40BB9289A76
:10017000299A2F938F939F9321E08EE39CE9019717
:10018000F1F72A95D1F700009F918F912F9129982F
:1001900000E00BB90F910F9304E50BB9289A299A47
:1001A0002F938F939F9321E08EE39CE90197F1F7C2
:1001B0002A95D1F700009F918F912F91299800E007
:1001C0000BB90F910F9300E20BB9289A299A2F933C
:1001D0008F939F9321E08EE39CE90197F1F72A9595
:1001E000D1F700009F918F912F91299800E00BB9D2
:1001F0000F910F9309E40BB9289A299A2F938F93A3
:100200009F9321E08EE39CE90197F1F72A95D1F7BE
:1002100000009F918F912F91299800E00BB90F91C9
:100220000F930EE40BB9289A299A2F938F939F93DB
:1002300021E08EE39CE90197F1F72A95D1F70000C0
:100240009F918F912F91299800E00BB90F910F93F7
:1002500004E50BB9289A299A2F938F939F9321E055
:100260008EE39CE90197F1F72A95D1F700009F9161
:100270008F912F91299800E00BB90F910F9305E40E
:100280000BB9289A299A2F938F939F9321E08EE39D
:100290009CE90197F1F72A95D1F700009F918F9182
:1002A0002F91299800E00BB90F910F930EE40BB931
:1002B000289A299A2F938F939F9321E08EE39CE9AC
:1002C0000197F1F72A95D1F700009F918F912F9117
:1002D000299800E00BB90F910F9303E50BB9289A09
:1002E000299A2F938F939F9321E08EE39CE90197A6
:1002F000F1F72A95D1F700009F918F912F912998BE
:1003000000E00BB90F910F9309E40BB9289A299AD1
:100310002F938F939F9321E08EE39CE90197F1F750
:100320002A95D1F700009F918F912F91299800E095
:100330000BB90F910F9304E50BB9289A299A2F93C3
:100340008F939F9321E08EE39CE90197F1F72A9523
:10035000D1F700009F918F912F91299800E00BB960
:100360000F910F9309E50BB9289A299A2F938F9330
:100370009F9321E08EE39CE90197F1F72A95D1F74D
:1003800000009F918F912F91299800E00BB90F9158
:100390000F9300EC0BB92898299A2F938F939F9372
:1003A00021E08EE39CE90197F1F72A95D1F700004F
:1003B0009F918F912F91299800E00BB90F910F9386
:1003C00000E20BB9289A299A2F938F939F9321E0EB
:1003D0008EE39CE90197F1F72A95D1F700009F91F0
:1003E0008F912F91299800E00BB90F910F9300E2A4
:1003F0000BB9289A299A2F938F939F9321E08EE32C
:100400009CE90197F1F72A95D1F700009F918F9110
:100410002F91299800E00BB90F910F9300E20BB9CF
:10042000289A299A2F938F939F9321E08EE39CE93A
:100430000197F1F72A95D1F700009F918F912F91A5
:10044000299800E00BB90F910F9300E20BB9289A9D
:10045000299A2F938F939F9321E08EE39CE9019734
:10046000F1F72A95D1F700009F918F912F9129984C
:1004700000E00BB90F910F9300E20BB9289A299A6B
:100480002F938F939F9321E08EE39CE90197F1F7DF
:100490002A95D1F700009F918F912F91299800E024
:1004A0000BB90F910F9300E20BB9289A299A2F9359
:1004B0008F939F9321E08EE39CE90197F1F72A95B2
:1004C000D1F700009F918F912F91299800E00BB9EF
:1004D0000F910F9300E20BB9289A299A2F938F93CB
:1004E0009F9321E08EE39CE90197F1F72A95D1F7DC
:1004F00000009F918F912F91299800E00BB90F91E7
:100500000F930CE40BB9289A299A2F938F939F93FA
:1005100021E08EE39CE90197F1F72A95D1F70000DD
:100520009F918F912F91299800E00BB90F910F9314
:100530000FE40BB9289A299A2F938F939F9321E068
:100540008EE39CE90197F1F72A95D1F700009F917E
:100550008F912F91299800E00BB90F910F9307E528
:100560000BB9289A299A2F938F939F9321E08EE3BA
:100570009CE90197F1F72A95D1F700009F918F919F
:100580002F91299800E00BB90F9118950F930CE467
:100590000BB9289A299A2F938F939F9321E08EE38A
:1005A0009CE90197F1F72A95D1F700009F918F916F
:1005B0002F91299800E00BB90F910F9309E40BB923
:1005C000289A299A2F938F939F9321E08EE39CE999
:1005D0000197F1F72A95D1F700009F918F912F9104
:1005E000299800E00BB90F910F9307E40BB9289AF3
:1005F000299A2F938F939F9321E08EE39CE9019793
:10060000F1F72A95D1F700009F918F912F912998AA
:1006100000E00BB90F910F9308E40BB9289A299ABF
:100620002F938F939F9321E08EE39CE90197F1F73D
:100630002A95D1F700009F918F912F91299800E082
:100640000BB90F910F9304E50BB9289A299A2F93B0
:100650008F939F9321E08EE39CE90197F1F72A9510
:10066000D1F700009F918F912F91299800E00BB94D
:100670000F910F9300E20BB9289A299A2F938F9329
:100680009F9321E08EE39CE90197F1F72A95D1F73A
:1006900000009F918F912F91299800E00BB90F9145
:1006A0000F9309E40BB9289A299A2F938F939F935C
:1006B00021E08EE39CE90197F1F72A95D1F700003C
:1006C0009F918F912F91299800E00BB90F910F9373
:1006D0000EE40BB9289A299A2F938F939F9321E0C8
:1006E0008EE39CE90197F1F72A95D1F700009F91DD
:1006F0008F912F91299800E00BB90F910F9304E58A
:100700000BB9289A299A2F938F939F9321E08EE318
:100710009CE90197F1F72A95D1F700009F918F91FD
:100720002F91299800E00BB90F910F9305E40BB9B5
:10073000289A299A2F938F939F9321E08EE39CE927
:100740000197F1F72A95D1F700009F918F912F9192
:10075000299800E00BB90F910F930EE40BB9289A7A
:10076000299A2F938F939F9321E08EE39CE9019721
:10077000F1F72A95D1F700009F918F912F91299839
:1007800000E00BB90F910F9303E50BB9289A299A52
:100790002F938F939F9321E08EE39CE90197F1F7CC
:1007A0002A95D1F700009F918F912F91299800E011
:1007B0000BB90F910F9309E40BB9289A299A2F933B
:1007C0008F939F9321E08EE39CE90197F1F72A959F
:1007D000D1F700009F918F912F91299800E00BB9DC
:1007E0000F910F9304E50BB9289A299A2F938F93B1
:1007F0009F9321E08EE39CE90197F1F72A95D1F7C9
:1008000000009F918F912F91299800E00BB90F91D3
:100810000F9309E50BB9289A299A2F938F939F93E9
:1008200021E08EE39CE90197F1F72A95D1F70000CA
:100830009F918F912F91299800E00BB90F910F9301
:1008400000EC0BB92898299A2F938F939F9321E05E
:100850008EE39CE90197F1F72A95D1F700009F916B
:100860008F912F91299800E00BB90F910F9300E21F
:100870000BB9289A299A2F938F939F9321E08EE3A7
:100880009CE90197F1F72A95D1F700009F918F918C
:100890002F91299800E00BB90F910F9300E20BB94B
:1008A000289A299A2F938F939F9321E08EE39CE9B6
:1008B0000197F1F72A95D1F700009F918F912F9121
:1008C000299800E00BB90F910F9300E20BB9289A19
:1008D000299A2F938F939F9321E08EE39CE90197B0
:1008E000F1F72A95D1F700009F918F912F912998C8
:1008F00000E00BB90F910F9300E20BB9289A299AE7
:100900002F938F939F9321E08EE39CE90197F1F75A
:100910002A95D1F700009F918F912F91299800E09F
:100920000BB90F910F9300E20BB9289A299A2F93D4
:100930008F939F9321E08EE39CE90197F1F72A952D
:10094000D1F700009F918F912F91299800E00BB96A
:100950000F910F9300E20BB9289A299A2F938F9346
:100960009F9321E08EE39CE90197F1F72A95D1F757
:1009700000009F918F912F91299800E00BB90F9162
:100980000F9308E40BB9289A299A2F938F939F937A
:1009900021E08EE39CE90197F1F72A95D1F7000059
:1009A0009F918F912F91299800E00BB90F910F9390
:1009B00009E40BB9289A299A2F938F939F9321E0EA
:1009C0008EE39CE90197F1F72A95D1F700009F91FA
:1009D0008F912F91299800E00BB90F910F9307E4A5
:1009E0000BB9289A299A2F938F939F9321E08EE336
:1009F0009CE90197F1F72A95D1F700009F918F911B
:100A00002F91299800E00BB90F910F9308E40BB9CF
:100A1000289A299A2F938F939F9321E08EE39CE944
:100A20000197F1F72A95D1F700009F918F912F91AF
:0A0A3000299800E00BB90F9118950A
:00000001FF
